{
  "contractName": "CryptoPark",
  "abi": [
    {
      "constant": true,
      "inputs": [],
      "name": "attractionPrice",
      "outputs": [
        {
          "name": "",
          "type": "uint256"
        }
      ],
      "payable": false,
      "stateMutability": "view",
      "type": "function"
    },
    {
      "constant": true,
      "inputs": [],
      "name": "entranceTicketPrice",
      "outputs": [
        {
          "name": "",
          "type": "uint256"
        }
      ],
      "payable": false,
      "stateMutability": "view",
      "type": "function"
    },
    {
      "constant": true,
      "inputs": [],
      "name": "totalEntranceFee",
      "outputs": [
        {
          "name": "",
          "type": "uint256"
        }
      ],
      "payable": false,
      "stateMutability": "view",
      "type": "function"
    },
    {
      "constant": true,
      "inputs": [],
      "name": "owner",
      "outputs": [
        {
          "name": "",
          "type": "address"
        }
      ],
      "payable": false,
      "stateMutability": "view",
      "type": "function"
    },
    {
      "constant": true,
      "inputs": [
        {
          "name": "",
          "type": "address"
        }
      ],
      "name": "employees",
      "outputs": [
        {
          "name": "",
          "type": "bool"
        }
      ],
      "payable": false,
      "stateMutability": "view",
      "type": "function"
    },
    {
      "inputs": [],
      "payable": false,
      "stateMutability": "nonpayable",
      "type": "constructor"
    },
    {
      "payable": true,
      "stateMutability": "payable",
      "type": "fallback"
    },
    {
      "anonymous": false,
      "inputs": [
        {
          "indexed": false,
          "name": "_address",
          "type": "address"
        }
      ],
      "name": "LogEmployeeCreated",
      "type": "event"
    },
    {
      "anonymous": false,
      "inputs": [
        {
          "indexed": false,
          "name": "totalEntranceFee",
          "type": "uint256"
        }
      ],
      "name": "LogEntranceFee",
      "type": "event"
    },
    {
      "anonymous": false,
      "inputs": [
        {
          "indexed": false,
          "name": "accountAddress",
          "type": "address"
        },
        {
          "indexed": false,
          "name": "amount",
          "type": "uint256"
        }
      ],
      "name": "LogPayEntranceFee",
      "type": "event"
    },
    {
      "constant": true,
      "inputs": [],
      "name": "getEmployeeCount",
      "outputs": [
        {
          "name": "",
          "type": "uint256"
        }
      ],
      "payable": false,
      "stateMutability": "view",
      "type": "function"
    },
    {
      "constant": false,
      "inputs": [
        {
          "name": "newEmployeeAddress",
          "type": "address"
        }
      ],
      "name": "createEmployee",
      "outputs": [],
      "payable": false,
      "stateMutability": "nonpayable",
      "type": "function"
    },
    {
      "constant": true,
      "inputs": [
        {
          "name": "_address",
          "type": "address"
        }
      ],
      "name": "isEmployee",
      "outputs": [
        {
          "name": "",
          "type": "bool"
        }
      ],
      "payable": false,
      "stateMutability": "view",
      "type": "function"
    },
    {
      "constant": false,
      "inputs": [
        {
          "name": "numTickets",
          "type": "uint256"
        }
      ],
      "name": "calculateTotalEntranceFee",
      "outputs": [
        {
          "name": "",
          "type": "uint256"
        }
      ],
      "payable": false,
      "stateMutability": "nonpayable",
      "type": "function"
    },
    {
      "constant": false,
      "inputs": [
        {
          "name": "numTickets",
          "type": "uint256"
        }
      ],
      "name": "payEntranceFee",
      "outputs": [],
      "payable": true,
      "stateMutability": "payable",
      "type": "function"
    },
    {
      "constant": true,
      "inputs": [],
      "name": "keepTrackOfVisitorsInPark",
      "outputs": [
        {
          "name": "",
          "type": "uint256"
        }
      ],
      "payable": false,
      "stateMutability": "view",
      "type": "function"
    },
    {
      "constant": false,
      "inputs": [],
      "name": "toggleContractActive",
      "outputs": [],
      "payable": false,
      "stateMutability": "nonpayable",
      "type": "function"
    },
    {
      "constant": true,
      "inputs": [],
      "name": "isStopped",
      "outputs": [
        {
          "name": "",
          "type": "bool"
        }
      ],
      "payable": false,
      "stateMutability": "view",
      "type": "function"
    },
    {
      "constant": true,
      "inputs": [
        {
          "name": "_owner",
          "type": "address"
        }
      ],
      "name": "getBalance",
      "outputs": [
        {
          "name": "",
          "type": "uint256"
        }
      ],
      "payable": false,
      "stateMutability": "view",
      "type": "function"
    },
    {
      "constant": true,
      "inputs": [],
      "name": "getEntranceFee",
      "outputs": [
        {
          "name": "",
          "type": "uint256"
        }
      ],
      "payable": false,
      "stateMutability": "view",
      "type": "function"
    },
    {
      "constant": true,
      "inputs": [],
      "name": "getContractAddress",
      "outputs": [
        {
          "name": "",
          "type": "address"
        }
      ],
      "payable": false,
      "stateMutability": "view",
      "type": "function"
    }
  ],
  "bytecode": "0x60806040526000600260006101000a81548160ff0219169083151502179055506005600755600260085534801561003557600080fd5b50336000806101000a81548173ffffffffffffffffffffffffffffffffffffffff021916908373ffffffffffffffffffffffffffffffffffffffff1602179055506001600660008060009054906101000a900473ffffffffffffffffffffffffffffffffffffffff1673ffffffffffffffffffffffffffffffffffffffff1673ffffffffffffffffffffffffffffffffffffffff16815260200190815260200160002060006101000a81548160ff02191690831515021790555060016004819055506005600781905550610d428061010e6000396000f3006080604052600436106100e6576000357c0100000000000000000000000000000000000000000000000000000000900463ffffffff16806309bc33a7146100f65780630b7af03c146101215780631385d24c1461014c57806332a2c5d0146101635780633f683b6a146101ba5780635acd7e0c146101e95780636f97e1401461022c578063879f3726146102575780638da5cb5b14610282578063a5748049146102d9578063abd40b2e1461031a578063c2a63e3b1461033a578063d067894714610365578063e9dc1b9b146103c0578063ea66543f146103eb578063f8b2cb4f14610446575b600260009054906101000a905050005b34801561010257600080fd5b5061010b61049d565b6040518082815260200191505060405180910390f35b34801561012d57600080fd5b506101366104a7565b6040518082815260200191505060405180910390f35b34801561015857600080fd5b506101616104ad565b005b34801561016f57600080fd5b5061017861059d565b604051808273ffffffffffffffffffffffffffffffffffffffff1673ffffffffffffffffffffffffffffffffffffffff16815260200191505060405180910390f35b3480156101c657600080fd5b506101cf6105a5565b604051808215151515815260200191505060405180910390f35b3480156101f557600080fd5b5061022a600480360381019080803573ffffffffffffffffffffffffffffffffffffffff1690602001909291905050506105bc565b005b34801561023857600080fd5b5061024161078c565b6040518082815260200191505060405180910390f35b34801561026357600080fd5b5061026c610792565b6040518082815260200191505060405180910390f35b34801561028e57600080fd5b50610297610798565b604051808273ffffffffffffffffffffffffffffffffffffffff1673ffffffffffffffffffffffffffffffffffffffff16815260200191505060405180910390f35b3480156102e557600080fd5b50610304600480360381019080803590602001909291905050506107bd565b6040518082815260200191505060405180910390f35b6103386004803603810190808035906020019092919050505061081d565b005b34801561034657600080fd5b5061034f610b41565b6040518082815260200191505060405180910390f35b34801561037157600080fd5b506103a6600480360381019080803573ffffffffffffffffffffffffffffffffffffffff169060200190929190505050610b4b565b604051808215151515815260200191505060405180910390f35b3480156103cc57600080fd5b506103d5610b6b565b6040518082815260200191505060405180910390f35b3480156103f757600080fd5b5061042c600480360381019080803573ffffffffffffffffffffffffffffffffffffffff169060200190929190505050610b75565b604051808215151515815260200191505060405180910390f35b34801561045257600080fd5b50610487600480360381019080803573ffffffffffffffffffffffffffffffffffffffff169060200190929190505050610bcb565b6040518082815260200191505060405180910390f35b6000600754905090565b60085481565b6000809054906101000a900473ffffffffffffffffffffffffffffffffffffffff1673ffffffffffffffffffffffffffffffffffffffff163373ffffffffffffffffffffffffffffffffffffffff16141515610571576040517f08c379a00000000000000000000000000000000000000000000000000000000081526004018080602001828103825260128152602001807f4f6e6c79206f776e657220616c6c6f776564000000000000000000000000000081525060200191505060405180910390fd5b600260009054906101000a900460ff1615600260006101000a81548160ff021916908315150217905550565b600030905090565b6000600260009054906101000a900460ff16905090565b600260009054906101000a900460ff1615156107895760011515600660008060009054906101000a900473ffffffffffffffffffffffffffffffffffffffff1673ffffffffffffffffffffffffffffffffffffffff1673ffffffffffffffffffffffffffffffffffffffff16815260200190815260200160002060009054906101000a900460ff1615151415156106bb576040517f08c379a00000000000000000000000000000000000000000000000000000000081526004018080602001828103825260188152602001807f456d706c6f79656520737461747573207265717569726564000000000000000081525060200191505060405180910390fd5b6001600660008373ffffffffffffffffffffffffffffffffffffffff1673ffffffffffffffffffffffffffffffffffffffff16815260200190815260200160002060006101000a81548160ff0219169083151502179055506004546004600082825401925050819055507f3e4e4c1dc0e7cb7f362b67d25e526607a2a94e73f681f559b28bb429883adc1f81604051808273ffffffffffffffffffffffffffffffffffffffff1673ffffffffffffffffffffffffffffffffffffffff16815260200191505060405180910390a15b50565b60075481565b60095481565b6000809054906101000a900473ffffffffffffffffffffffffffffffffffffffff1681565b60006107d482600754610cd890919063ffffffff16565b6009819055507f49626e737e8bece4b5e6f42fdae923813d747a8d443053a8afbe0b7f52c4bc346009546040518082815260200191505060405180910390a16009549050919050565b6000600260009054906101000a900460ff161515610b3d57600954600160008060009054906101000a900473ffffffffffffffffffffffffffffffffffffffff1673ffffffffffffffffffffffffffffffffffffffff1673ffffffffffffffffffffffffffffffffffffffff16815260200190815260200160002054101515156108a657600080fd5b6009543410151515610920576040517f08c379a00000000000000000000000000000000000000000000000000000000081526004018080602001828103825260158152602001807f4e6f7420656e6f7567682076616c75652073656e74000000000000000000000081525060200191505060405180910390fd5b60095434111561099a57600954340390506000809054906101000a900473ffffffffffffffffffffffffffffffffffffffff1673ffffffffffffffffffffffffffffffffffffffff166108fc829081150290604051600060405180830381858888f19350505050158015610998573d6000803e3d6000fd5b505b6000600160003073ffffffffffffffffffffffffffffffffffffffff1673ffffffffffffffffffffffffffffffffffffffff16815260200190815260200160002081905550600954600160008060009054906101000a900473ffffffffffffffffffffffffffffffffffffffff1673ffffffffffffffffffffffffffffffffffffffff1673ffffffffffffffffffffffffffffffffffffffff16815260200190815260200160002060008282540392505081905550600954600160003073ffffffffffffffffffffffffffffffffffffffff1673ffffffffffffffffffffffffffffffffffffffff16815260200190815260200160002060008282540192505081905550816003600082825401925050819055507f8edbe23e7a63a9facc41ce53edaf6340f2c9e9a3218146fe488455358eb59f996000809054906101000a900473ffffffffffffffffffffffffffffffffffffffff16600954604051808373ffffffffffffffffffffffffffffffffffffffff1673ffffffffffffffffffffffffffffffffffffffff1681526020018281526020019250505060405180910390a15b5050565b6000600454905090565b60066020528060005260406000206000915054906101000a900460ff1681565b6000600354905090565b6000600660008373ffffffffffffffffffffffffffffffffffffffff1673ffffffffffffffffffffffffffffffffffffffff16815260200190815260200160002060009054906101000a900460ff169050919050565b60008060009054906101000a900473ffffffffffffffffffffffffffffffffffffffff1673ffffffffffffffffffffffffffffffffffffffff163373ffffffffffffffffffffffffffffffffffffffff16141515610c91576040517f08c379a00000000000000000000000000000000000000000000000000000000081526004018080602001828103825260128152602001807f4f6e6c79206f776e657220616c6c6f776564000000000000000000000000000081525060200191505060405180910390fd5b600160008373ffffffffffffffffffffffffffffffffffffffff1673ffffffffffffffffffffffffffffffffffffffff168152602001908152602001600020549050919050565b6000806000841415610ced5760009150610d0f565b8284029050828482811515610cfe57fe5b04141515610d0b57600080fd5b8091505b50929150505600a165627a7a7230582025bb1fa8661e827fadd8ee7d68e1ad4405a64fae4433d3f9d68de3aa86854acc0029",
  "source": "pragma solidity 0.4.24;\n\nimport \"./Owned.sol\";\nimport \"./SafeMath.sol\";\n\n/**\n* @title CryptoPark\n* @author Philip Montagu-Evans\n* @notice UNFORTUNATELY due to lack of time\n* all the CryptoPark functionality is implemented inside of this contract.\n* Separation of Concerns are not taken into account\n*/\ncontract CryptoPark is Owned {\n\n    // Enables SafeMath to be used for uint\n    using SafeMath for uint;\n\n    // Keeps track of current balance\n    mapping(address => uint) private balanceOf;\n\n    // Used for emergency stop\n    bool private stopped = false;\n\n    // storeVisitorsCount tracks the number of visitors in park\n    uint storeVisitorsCount;\n\n    // Counts number of employees\n    uint employeeCount;\n\n    // Counts number of tickets sold\n    uint numTickets;\n\n    // Checks address with employee status\n    mapping (address => bool) public employees;\n\n    // price per entrance ticket\n    uint public entranceTicketPrice = 5;\n\n\n    uint public attractionPrice = 2;\n\n    // holds the total amount to pay to enter the park\n    uint public totalEntranceFee;\n\n    // contract events\n    event LogEmployeeCreated(address _address);\n    event LogEntranceFee(uint totalEntranceFee);\n    event LogPayEntranceFee(address accountAddress, uint amount);\n\n    /**\n    * @dev Emergency stop modifier which restricts certain functions from executing\n    */\n    modifier stopInEmergency {\n        if (!stopped)\n            _;\n    }\n\n     /**\n     * @dev Checks if the msg.sender is an employee\n     */\n    modifier verifyEmployee() {\n        require(employees[owner] == true, \"Employee status required\");\n        _;\n    }\n\n    /**\n    * @dev Deployer address is made owner of the contract.\n    * Is also given administrator status\n    */\n\n    constructor() public {\n        employees[owner] = true;\n        employeeCount = 1;\n        entranceTicketPrice = 5;\n    }\n\n    /**\n    * @dev Gets the number of employees\n    * @return The number of employees.\n      */\n    function getEmployeeCount() public view returns (uint) {\n        return employeeCount;\n    }\n\n    /**\n    * @dev Creates a new CryptoPark employee.\n    * @param newEmployeeAddress - The address set to employee.\n    */\n    function createEmployee(address newEmployeeAddress) public stopInEmergency() verifyEmployee() {\n        employees[newEmployeeAddress] = true;\n        employeeCount += employeeCount;\n        emit LogEmployeeCreated(newEmployeeAddress);\n    }\n\n     /**\n     * @dev Checks if given address is employee.\n     * @param _address Address to check for employee status.\n     * @return true if address is employee, otherwise false.\n     */\n    function isEmployee(address _address) public view returns (bool) {\n        return employees[_address];\n    }\n\n     /**\n    *@notice [ Security pattern ] for potential overflow using the SafeMath library.\n    * The result of this operation will be checked\n    * and an error will be thrown stopping the execution of this contract.\n    * This is just a way to show how a library can be implemented\n    */\n    function calculateTotalEntranceFee(uint numTickets) public returns (uint) {\n        totalEntranceFee = entranceTicketPrice.mul(numTickets);\n        emit LogEntranceFee(totalEntranceFee);\n        return totalEntranceFee;\n    }\n\n    /**\n    * @notice payEntranceFee sends transaction from owner to the park through Metamask\n    * @param numTickets to calculate\n    * @return The balance of the user after the deposit is made\n    */\n\n    function payEntranceFee(uint numTickets) public payable stopInEmergency {\n        // Here we are making sure that there isn't an overflow issue\n        require(balanceOf[owner] >= totalEntranceFee);\n        require(msg.value >= totalEntranceFee, \"Not enough value sent\");\n\n        // Refund excess value\n        if (msg.value > totalEntranceFee) {\n            uint excessEther = msg.value - totalEntranceFee;\n            owner.transfer(excessEther);\n        }\n\n        //Set balance to zero before transfering funds to prevent re-entrance attack\n        balanceOf[address(this)] = 0;\n\n        balanceOf[owner] -= totalEntranceFee;\n        balanceOf[address(this)] += totalEntranceFee;\n        storeVisitorsCount += numTickets;\n\n        //msg.value is automatically set to the amount of ether sent with that payable function.\n        emit LogPayEntranceFee(owner, totalEntranceFee);\n    }\n\n    /*\n        keep track of how many people are in the park for security reasons\n        we don't want to exceed capacity limit\n        fortunately however, we don't need to check this since the park offer interstellar travel ;-)\n     */\n    function keepTrackOfVisitorsInPark() public view returns (uint) {\n        return storeVisitorsCount;\n    }\n\n     /**\n     * @dev Emergency stop function only callable by owner of contract\n     */\n    function toggleContractActive() public onlyOwner {\n        stopped = !stopped;\n    }\n\n    function isStopped() public view returns (bool) {\n        return stopped;\n    }\n\n     /**\n     * @dev circuit breaker\n     * fallback function that allows contract to accept ETH\n     * else Error: VM Exception while processing transaction: invalid opcode\n     */\n    function () public stopInEmergency payable {}\n\n    /**\n    * @notice Returns the balance of the callers address.\n    * Function onlyOwner makes sure only owner can call this.\n    * @param _owner The address to query the balance of.\n    * @return An uint representing the amount owned by the passed address.\n    */\n    function getBalance(address _owner) public view onlyOwner returns (uint) {\n        return balanceOf[_owner];\n    }\n\n\n    // gets the initial entrance fee\n    function getEntranceFee() public view returns (uint) {\n        return entranceTicketPrice;\n    }\n\n    // Used for displaying the contract address to the visitors\n    function getContractAddress() public view returns (address) {\n        return address(this);\n    }\n}",
  "sourcePath": "/Users/dalailama/Desktop/final/ethereum-angular6-cryptogap/contracts/CryptoPark.sol",
  "compiler": {
    "name": "solc",
    "version": "0.4.24+commit.e67f0147.Emscripten.clang"
  },
  "schemaVersion": "2.0.1",
  "updatedAt": "2018-08-28T12:05:15.351Z"
}