{
  "contractName": "Mortal",
  "abi": [
    {
      "constant": true,
      "inputs": [],
      "name": "owner",
      "outputs": [
        {
          "name": "",
          "type": "address"
        }
      ],
      "payable": false,
      "stateMutability": "view",
      "type": "function"
    },
    {
      "constant": false,
      "inputs": [],
      "name": "kill",
      "outputs": [],
      "payable": false,
      "stateMutability": "nonpayable",
      "type": "function"
    }
  ],
  "bytecode": "0x6080604052336000806101000a81548173ffffffffffffffffffffffffffffffffffffffff021916908373ffffffffffffffffffffffffffffffffffffffff1602179055506101a5806100536000396000f30060806040526004361061004c576000357c0100000000000000000000000000000000000000000000000000000000900463ffffffff16806341c0e1b5146100515780638da5cb5b14610068575b600080fd5b34801561005d57600080fd5b506100666100bf565b005b34801561007457600080fd5b5061007d610154565b604051808273ffffffffffffffffffffffffffffffffffffffff1673ffffffffffffffffffffffffffffffffffffffff16815260200191505060405180910390f35b6000809054906101000a900473ffffffffffffffffffffffffffffffffffffffff1673ffffffffffffffffffffffffffffffffffffffff163373ffffffffffffffffffffffffffffffffffffffff1614151561011a57600080fd5b6000809054906101000a900473ffffffffffffffffffffffffffffffffffffffff1673ffffffffffffffffffffffffffffffffffffffff16ff5b6000809054906101000a900473ffffffffffffffffffffffffffffffffffffffff16815600a165627a7a72305820ff4b1abfccbc9baa140f2853e06888a4732c531c66a41afdb5bb0be41b8f50fc0029",
  "source": "pragma solidity ^0.4.24;\n\nimport \"./Owned.sol\";\n\ncontract Mortal is Owned {\n\n/**\n* @notice function kill() is used to destroy the contract whenever you want.\n* We only want the owner to be able to kill it.\n* The remaining ether that the contract has stored will be sent to the owner’s address.\n* Only use it if the contract is compromised and if so this function gives\n* the ability to destroy the contract and remove it from the blockchain.\n*/\n    function kill() {\n        require(msg.sender == owner);\n        selfdestruct(owner);\n    }\n}",
  "sourcePath": "/Users/dalailama/Desktop/final/ethereum-angular6-cryptogap/contracts/Mortal.sol",
  "compiler": {
    "name": "solc",
    "version": "0.4.24+commit.e67f0147.Emscripten.clang"
  },
  "schemaVersion": "2.0.1",
  "updatedAt": "2018-08-28T12:05:15.346Z"
}